{
  "_format": "hh-sol-artifact-1",
  "contractName": "PaintingNFT",
  "sourceName": "contracts/PaintingNFT.sol",
  "abi": [
    {
      "inputs": [
        {
          "internalType": "string",
          "name": "name",
          "type": "string"
        },
        {
          "internalType": "string",
          "name": "symbol",
          "type": "string"
        },
        {
          "internalType": "string",
          "name": "URI",
          "type": "string"
        }
      ],
      "stateMutability": "nonpayable",
      "type": "constructor"
    },
    {
      "inputs": [
        {
          "internalType": "string",
          "name": "",
          "type": "string"
        }
      ],
      "name": "MaximumSupply",
      "type": "error"
    },
    {
      "inputs": [
        {
          "internalType": "string",
          "name": "",
          "type": "string"
        }
      ],
      "name": "SupplyReached",
      "type": "error"
    },
    {
      "anonymous": false,
      "inputs": [
        {
          "indexed": true,
          "internalType": "address",
          "name": "owner",
          "type": "address"
        },
        {
          "indexed": true,
          "internalType": "address",
          "name": "approved",
          "type": "address"
        },
        {
          "indexed": true,
          "internalType": "uint256",
          "name": "tokenId",
          "type": "uint256"
        }
      ],
      "name": "Approval",
      "type": "event"
    },
    {
      "anonymous": false,
      "inputs": [
        {
          "indexed": true,
          "internalType": "address",
          "name": "owner",
          "type": "address"
        },
        {
          "indexed": true,
          "internalType": "address",
          "name": "operator",
          "type": "address"
        },
        {
          "indexed": false,
          "internalType": "bool",
          "name": "approved",
          "type": "bool"
        }
      ],
      "name": "ApprovalForAll",
      "type": "event"
    },
    {
      "anonymous": false,
      "inputs": [
        {
          "indexed": true,
          "internalType": "address",
          "name": "previousOwner",
          "type": "address"
        },
        {
          "indexed": true,
          "internalType": "address",
          "name": "newOwner",
          "type": "address"
        }
      ],
      "name": "OwnershipTransferred",
      "type": "event"
    },
    {
      "anonymous": false,
      "inputs": [
        {
          "indexed": true,
          "internalType": "address",
          "name": "from",
          "type": "address"
        },
        {
          "indexed": true,
          "internalType": "address",
          "name": "to",
          "type": "address"
        },
        {
          "indexed": true,
          "internalType": "uint256",
          "name": "tokenId",
          "type": "uint256"
        }
      ],
      "name": "Transfer",
      "type": "event"
    },
    {
      "inputs": [],
      "name": "_tokenId",
      "outputs": [
        {
          "internalType": "uint32",
          "name": "",
          "type": "uint32"
        }
      ],
      "stateMutability": "view",
      "type": "function"
    },
    {
      "inputs": [],
      "name": "_tokenURI",
      "outputs": [
        {
          "internalType": "string",
          "name": "",
          "type": "string"
        }
      ],
      "stateMutability": "view",
      "type": "function"
    },
    {
      "inputs": [
        {
          "internalType": "uint256",
          "name": "tokenId",
          "type": "uint256"
        }
      ],
      "name": "addPaintingMetadata",
      "outputs": [
        {
          "internalType": "bool",
          "name": "",
          "type": "bool"
        }
      ],
      "stateMutability": "nonpayable",
      "type": "function"
    },
    {
      "inputs": [
        {
          "internalType": "address",
          "name": "to",
          "type": "address"
        },
        {
          "internalType": "uint256",
          "name": "tokenId",
          "type": "uint256"
        }
      ],
      "name": "approve",
      "outputs": [],
      "stateMutability": "nonpayable",
      "type": "function"
    },
    {
      "inputs": [
        {
          "internalType": "address",
          "name": "owner",
          "type": "address"
        }
      ],
      "name": "balanceOf",
      "outputs": [
        {
          "internalType": "uint256",
          "name": "",
          "type": "uint256"
        }
      ],
      "stateMutability": "view",
      "type": "function"
    },
    {
      "inputs": [],
      "name": "extension",
      "outputs": [
        {
          "internalType": "string",
          "name": "",
          "type": "string"
        }
      ],
      "stateMutability": "view",
      "type": "function"
    },
    {
      "inputs": [
        {
          "internalType": "uint256",
          "name": "tokenId",
          "type": "uint256"
        }
      ],
      "name": "getApproved",
      "outputs": [
        {
          "internalType": "address",
          "name": "",
          "type": "address"
        }
      ],
      "stateMutability": "view",
      "type": "function"
    },
    {
      "inputs": [
        {
          "internalType": "address",
          "name": "owner",
          "type": "address"
        },
        {
          "internalType": "address",
          "name": "operator",
          "type": "address"
        }
      ],
      "name": "isApprovedForAll",
      "outputs": [
        {
          "internalType": "bool",
          "name": "",
          "type": "bool"
        }
      ],
      "stateMutability": "view",
      "type": "function"
    },
    {
      "inputs": [],
      "name": "maxSupply",
      "outputs": [
        {
          "internalType": "uint256",
          "name": "",
          "type": "uint256"
        }
      ],
      "stateMutability": "view",
      "type": "function"
    },
    {
      "inputs": [],
      "name": "mintNFT",
      "outputs": [
        {
          "internalType": "bool",
          "name": "",
          "type": "bool"
        }
      ],
      "stateMutability": "nonpayable",
      "type": "function"
    },
    {
      "inputs": [],
      "name": "name",
      "outputs": [
        {
          "internalType": "string",
          "name": "",
          "type": "string"
        }
      ],
      "stateMutability": "view",
      "type": "function"
    },
    {
      "inputs": [],
      "name": "owner",
      "outputs": [
        {
          "internalType": "address",
          "name": "",
          "type": "address"
        }
      ],
      "stateMutability": "view",
      "type": "function"
    },
    {
      "inputs": [
        {
          "internalType": "uint256",
          "name": "tokenId",
          "type": "uint256"
        }
      ],
      "name": "ownerOf",
      "outputs": [
        {
          "internalType": "address",
          "name": "",
          "type": "address"
        }
      ],
      "stateMutability": "view",
      "type": "function"
    },
    {
      "inputs": [],
      "name": "renounceOwnership",
      "outputs": [],
      "stateMutability": "nonpayable",
      "type": "function"
    },
    {
      "inputs": [
        {
          "internalType": "address",
          "name": "from",
          "type": "address"
        },
        {
          "internalType": "address",
          "name": "to",
          "type": "address"
        },
        {
          "internalType": "uint256",
          "name": "tokenId",
          "type": "uint256"
        }
      ],
      "name": "safeTransferFrom",
      "outputs": [],
      "stateMutability": "nonpayable",
      "type": "function"
    },
    {
      "inputs": [
        {
          "internalType": "address",
          "name": "from",
          "type": "address"
        },
        {
          "internalType": "address",
          "name": "to",
          "type": "address"
        },
        {
          "internalType": "uint256",
          "name": "tokenId",
          "type": "uint256"
        },
        {
          "internalType": "bytes",
          "name": "_data",
          "type": "bytes"
        }
      ],
      "name": "safeTransferFrom",
      "outputs": [],
      "stateMutability": "nonpayable",
      "type": "function"
    },
    {
      "inputs": [
        {
          "internalType": "address",
          "name": "operator",
          "type": "address"
        },
        {
          "internalType": "bool",
          "name": "approved",
          "type": "bool"
        }
      ],
      "name": "setApprovalForAll",
      "outputs": [],
      "stateMutability": "nonpayable",
      "type": "function"
    },
    {
      "inputs": [
        {
          "internalType": "bytes4",
          "name": "interfaceId",
          "type": "bytes4"
        }
      ],
      "name": "supportsInterface",
      "outputs": [
        {
          "internalType": "bool",
          "name": "",
          "type": "bool"
        }
      ],
      "stateMutability": "view",
      "type": "function"
    },
    {
      "inputs": [],
      "name": "symbol",
      "outputs": [
        {
          "internalType": "string",
          "name": "",
          "type": "string"
        }
      ],
      "stateMutability": "view",
      "type": "function"
    },
    {
      "inputs": [
        {
          "internalType": "uint256",
          "name": "tokenId",
          "type": "uint256"
        }
      ],
      "name": "tokenURI",
      "outputs": [
        {
          "internalType": "string",
          "name": "",
          "type": "string"
        }
      ],
      "stateMutability": "view",
      "type": "function"
    },
    {
      "inputs": [],
      "name": "totalSupply",
      "outputs": [
        {
          "internalType": "uint32",
          "name": "",
          "type": "uint32"
        }
      ],
      "stateMutability": "view",
      "type": "function"
    },
    {
      "inputs": [
        {
          "internalType": "address",
          "name": "from",
          "type": "address"
        },
        {
          "internalType": "address",
          "name": "to",
          "type": "address"
        },
        {
          "internalType": "uint256",
          "name": "tokenId",
          "type": "uint256"
        }
      ],
      "name": "transferFrom",
      "outputs": [],
      "stateMutability": "nonpayable",
      "type": "function"
    },
    {
      "inputs": [
        {
          "internalType": "address",
          "name": "newOwner",
          "type": "address"
        }
      ],
      "name": "transferOwnership",
      "outputs": [],
      "stateMutability": "nonpayable",
      "type": "function"
    }
  ],
  "bytecode": "0x60806040526040518060400160405280600581526020017f2e6a736f6e0000000000000000000000000000000000000000000000000000008152506009908051906020019062000051929190620001f3565b506101f4600a60006101000a81548163ffffffff021916908363ffffffff160217905550600f600b553480156200008757600080fd5b50604051620036d6380380620036d68339818101604052810190620000ad919062000315565b82828160009080519060200190620000c7929190620001f3565b508060019080519060200190620000e0929190620001f3565b50505062000103620000f76200012560201b60201c565b6200012d60201b60201c565b80600890805190602001906200011b929190620001f3565b5050505062000526565b600033905090565b6000600760009054906101000a900473ffffffffffffffffffffffffffffffffffffffff16905081600760006101000a81548173ffffffffffffffffffffffffffffffffffffffff021916908373ffffffffffffffffffffffffffffffffffffffff1602179055508173ffffffffffffffffffffffffffffffffffffffff168173ffffffffffffffffffffffffffffffffffffffff167f8be0079c531659141344cd1fd0a4f28419497f9722a3daafe3b4186f6b6457e060405160405180910390a35050565b82805462000201906200044b565b90600052602060002090601f01602090048101928262000225576000855562000271565b82601f106200024057805160ff191683800117855562000271565b8280016001018555821562000271579182015b828111156200027057825182559160200191906001019062000253565b5b50905062000280919062000284565b5090565b5b808211156200029f57600081600090555060010162000285565b5090565b6000620002ba620002b484620003df565b620003b6565b905082815260208101848484011115620002d357600080fd5b620002e084828562000415565b509392505050565b600082601f830112620002fa57600080fd5b81516200030c848260208601620002a3565b91505092915050565b6000806000606084860312156200032b57600080fd5b600084015167ffffffffffffffff8111156200034657600080fd5b6200035486828701620002e8565b935050602084015167ffffffffffffffff8111156200037257600080fd5b6200038086828701620002e8565b925050604084015167ffffffffffffffff8111156200039e57600080fd5b620003ac86828701620002e8565b9150509250925092565b6000620003c2620003d5565b9050620003d0828262000481565b919050565b6000604051905090565b600067ffffffffffffffff821115620003fd57620003fc620004e6565b5b620004088262000515565b9050602081019050919050565b60005b838110156200043557808201518184015260208101905062000418565b8381111562000445576000848401525b50505050565b600060028204905060018216806200046457607f821691505b602082108114156200047b576200047a620004b7565b5b50919050565b6200048c8262000515565b810181811067ffffffffffffffff82111715620004ae57620004ad620004e6565b5b80604052505050565b7f4e487b7100000000000000000000000000000000000000000000000000000000600052602260045260246000fd5b7f4e487b7100000000000000000000000000000000000000000000000000000000600052604160045260246000fd5b6000601f19601f8301169050919050565b6131a080620005366000396000f3fe608060405234801561001057600080fd5b506004361061014d5760003560e01c806370a08231116100c3578063b88d4fde1161007c578063b88d4fde1461037c578063c87b56dd14610398578063d5abeb01146103c8578063e985e9c5146103e6578063f2fde38b14610416578063fe4d8555146104325761014d565b806370a08231146102cc578063715018a6146102fc5780638da5cb5b1461030657806395d89b4114610324578063a22cb46514610342578063b4ce37d21461035e5761014d565b806318160ddd1161011557806318160ddd1461020a57806323b872dd1461022857806324822514146102445780632d5537b01461026257806342842e0e146102805780636352211e1461029c5761014d565b806301ffc9a71461015257806306fdde0314610182578063081812fc146101a0578063095ea7b3146101d057806314f710fe146101ec575b600080fd5b61016c600480360381019061016791906120ad565b610462565b604051610179919061252b565b60405180910390f35b61018a610544565b6040516101979190612546565b60405180910390f35b6101ba60048036038101906101b591906120ff565b6105d6565b6040516101c791906124c4565b60405180910390f35b6101ea60048036038101906101e59190612071565b61065b565b005b6101f4610773565b604051610201919061252b565b60405180910390f35b61021261088d565b60405161021f91906127e3565b60405180910390f35b610242600480360381019061023d9190611f6b565b6108a3565b005b61024c610903565b60405161025991906127e3565b60405180910390f35b61026a610919565b6040516102779190612546565b60405180910390f35b61029a60048036038101906102959190611f6b565b6109a7565b005b6102b660048036038101906102b191906120ff565b6109c7565b6040516102c391906124c4565b60405180910390f35b6102e660048036038101906102e19190611f06565b610a79565b6040516102f391906127c8565b60405180910390f35b610304610b31565b005b61030e610bb9565b60405161031b91906124c4565b60405180910390f35b61032c610be3565b6040516103399190612546565b60405180910390f35b61035c60048036038101906103579190612035565b610c75565b005b610366610df6565b6040516103739190612546565b60405180910390f35b61039660048036038101906103919190611fba565b610e84565b005b6103b260048036038101906103ad91906120ff565b610ee6565b6040516103bf9190612546565b60405180910390f35b6103d0611038565b6040516103dd91906127c8565b60405180910390f35b61040060048036038101906103fb9190611f2f565b61103e565b60405161040d919061252b565b60405180910390f35b610430600480360381019061042b9190611f06565b6110d2565b005b61044c600480360381019061044791906120ff565b6111ca565b604051610459919061252b565b60405180910390f35b60007f80ac58cd000000000000000000000000000000000000000000000000000000007bffffffffffffffffffffffffffffffffffffffffffffffffffffffff1916827bffffffffffffffffffffffffffffffffffffffffffffffffffffffff1916148061052d57507f5b5e139f000000000000000000000000000000000000000000000000000000007bffffffffffffffffffffffffffffffffffffffffffffffffffffffff1916827bffffffffffffffffffffffffffffffffffffffffffffffffffffffff1916145b8061053d575061053c826111df565b5b9050919050565b60606000805461055390612a18565b80601f016020809104026020016040519081016040528092919081815260200182805461057f90612a18565b80156105cc5780601f106105a1576101008083540402835291602001916105cc565b820191906000526020600020905b8154815290600101906020018083116105af57829003601f168201915b5050505050905090565b60006105e182611249565b610620576040517f08c379a000000000000000000000000000000000000000000000000000000000815260040161061790612708565b60405180910390fd5b6004600083815260200190815260200160002060009054906101000a900473ffffffffffffffffffffffffffffffffffffffff169050919050565b6000610666826109c7565b90508073ffffffffffffffffffffffffffffffffffffffff168373ffffffffffffffffffffffffffffffffffffffff1614156106d7576040517f08c379a00000000000000000000000000000000000000000000000000000000081526004016106ce90612788565b60405180910390fd5b8073ffffffffffffffffffffffffffffffffffffffff166106f66112b5565b73ffffffffffffffffffffffffffffffffffffffff16148061072557506107248161071f6112b5565b61103e565b5b610764576040517f08c379a000000000000000000000000000000000000000000000000000000000815260040161075b90612668565b60405180910390fd5b61076e83836112bd565b505050565b600080600c600081819054906101000a900463ffffffff168092919061079890612ac4565b91906101000a81548163ffffffff021916908363ffffffff1602179055509050600a60009054906101000a900463ffffffff1663ffffffff168163ffffffff161115610819576040517f24882d1100000000000000000000000000000000000000000000000000000000815260040161081090612648565b60405180910390fd5b600f61082433610a79565b1115610865576040517f8ac18a0300000000000000000000000000000000000000000000000000000000815260040161085c90612628565b60405180910390fd5b610875338263ffffffff16611376565b6108848163ffffffff166111ca565b50600191505090565b600a60009054906101000a900463ffffffff1681565b6108b46108ae6112b5565b82611544565b6108f3576040517f08c379a00000000000000000000000000000000000000000000000000000000081526004016108ea906127a8565b60405180910390fd5b6108fe838383611622565b505050565b600c60009054906101000a900463ffffffff1681565b6009805461092690612a18565b80601f016020809104026020016040519081016040528092919081815260200182805461095290612a18565b801561099f5780601f106109745761010080835404028352916020019161099f565b820191906000526020600020905b81548152906001019060200180831161098257829003601f168201915b505050505081565b6109c283838360405180602001604052806000815250610e84565b505050565b6000806002600084815260200190815260200160002060009054906101000a900473ffffffffffffffffffffffffffffffffffffffff169050600073ffffffffffffffffffffffffffffffffffffffff168173ffffffffffffffffffffffffffffffffffffffff161415610a70576040517f08c379a0000000000000000000000000000000000000000000000000000000008152600401610a67906126a8565b60405180910390fd5b80915050919050565b60008073ffffffffffffffffffffffffffffffffffffffff168273ffffffffffffffffffffffffffffffffffffffff161415610aea576040517f08c379a0000000000000000000000000000000000000000000000000000000008152600401610ae190612688565b60405180910390fd5b600360008373ffffffffffffffffffffffffffffffffffffffff1673ffffffffffffffffffffffffffffffffffffffff168152602001908152602001600020549050919050565b610b396112b5565b73ffffffffffffffffffffffffffffffffffffffff16610b57610bb9565b73ffffffffffffffffffffffffffffffffffffffff1614610bad576040517f08c379a0000000000000000000000000000000000000000000000000000000008152600401610ba490612728565b60405180910390fd5b610bb7600061187e565b565b6000600760009054906101000a900473ffffffffffffffffffffffffffffffffffffffff16905090565b606060018054610bf290612a18565b80601f0160208091040260200160405190810160405280929190818152602001828054610c1e90612a18565b8015610c6b5780601f10610c4057610100808354040283529160200191610c6b565b820191906000526020600020905b815481529060010190602001808311610c4e57829003601f168201915b5050505050905090565b610c7d6112b5565b73ffffffffffffffffffffffffffffffffffffffff168273ffffffffffffffffffffffffffffffffffffffff161415610ceb576040517f08c379a0000000000000000000000000000000000000000000000000000000008152600401610ce2906125e8565b60405180910390fd5b8060056000610cf86112b5565b73ffffffffffffffffffffffffffffffffffffffff1673ffffffffffffffffffffffffffffffffffffffff16815260200190815260200160002060008473ffffffffffffffffffffffffffffffffffffffff1673ffffffffffffffffffffffffffffffffffffffff16815260200190815260200160002060006101000a81548160ff0219169083151502179055508173ffffffffffffffffffffffffffffffffffffffff16610da56112b5565b73ffffffffffffffffffffffffffffffffffffffff167f17307eab39ab6107e8899845ad3d59bd9653f200f220920489ca2b5937696c3183604051610dea919061252b565b60405180910390a35050565b60088054610e0390612a18565b80601f0160208091040260200160405190810160405280929190818152602001828054610e2f90612a18565b8015610e7c5780601f10610e5157610100808354040283529160200191610e7c565b820191906000526020600020905b815481529060010190602001808311610e5f57829003601f168201915b505050505081565b610e95610e8f6112b5565b83611544565b610ed4576040517f08c379a0000000000000000000000000000000000000000000000000000000008152600401610ecb906127a8565b60405180910390fd5b610ee084848484611944565b50505050565b6060610ef182611249565b610f30576040517f08c379a0000000000000000000000000000000000000000000000000000000008152600401610f27906126e8565b60405180910390fd5b6000600660008481526020019081526020016000208054610f5090612a18565b80601f0160208091040260200160405190810160405280929190818152602001828054610f7c90612a18565b8015610fc95780601f10610f9e57610100808354040283529160200191610fc9565b820191906000526020600020905b815481529060010190602001808311610fac57829003601f168201915b505050505090506000610fda6119a0565b9050600081511415610ff0578192505050611033565b60008251111561102557808260405160200161100d9291906124a0565b60405160208183030381529060405292505050611033565b61102e84611a32565b925050505b919050565b600b5481565b6000600560008473ffffffffffffffffffffffffffffffffffffffff1673ffffffffffffffffffffffffffffffffffffffff16815260200190815260200160002060008373ffffffffffffffffffffffffffffffffffffffff1673ffffffffffffffffffffffffffffffffffffffff16815260200190815260200160002060009054906101000a900460ff16905092915050565b6110da6112b5565b73ffffffffffffffffffffffffffffffffffffffff166110f8610bb9565b73ffffffffffffffffffffffffffffffffffffffff161461114e576040517f08c379a000000000000000000000000000000000000000000000000000000000815260040161114590612728565b60405180910390fd5b600073ffffffffffffffffffffffffffffffffffffffff168173ffffffffffffffffffffffffffffffffffffffff1614156111be576040517f08c379a00000000000000000000000000000000000000000000000000000000081526004016111b590612588565b60405180910390fd5b6111c78161187e565b50565b60006111d582610ee6565b5060019050919050565b60007f01ffc9a7000000000000000000000000000000000000000000000000000000007bffffffffffffffffffffffffffffffffffffffffffffffffffffffff1916827bffffffffffffffffffffffffffffffffffffffffffffffffffffffff1916149050919050565b60008073ffffffffffffffffffffffffffffffffffffffff166002600084815260200190815260200160002060009054906101000a900473ffffffffffffffffffffffffffffffffffffffff1673ffffffffffffffffffffffffffffffffffffffff1614159050919050565b600033905090565b816004600083815260200190815260200160002060006101000a81548173ffffffffffffffffffffffffffffffffffffffff021916908373ffffffffffffffffffffffffffffffffffffffff160217905550808273ffffffffffffffffffffffffffffffffffffffff16611330836109c7565b73ffffffffffffffffffffffffffffffffffffffff167f8c5be1e5ebec7d5bd14f71427d1e84f3dd0314c0f7b2291e5b200ac8c7c3b92560405160405180910390a45050565b600073ffffffffffffffffffffffffffffffffffffffff168273ffffffffffffffffffffffffffffffffffffffff1614156113e6576040517f08c379a00000000000000000000000000000000000000000000000000000000081526004016113dd906126c8565b60405180910390fd5b6113ef81611249565b1561142f576040517f08c379a0000000000000000000000000000000000000000000000000000000008152600401611426906125a8565b60405180910390fd5b61143b60008383611ad9565b6001600360008473ffffffffffffffffffffffffffffffffffffffff1673ffffffffffffffffffffffffffffffffffffffff168152602001908152602001600020600082825461148b9190612897565b92505081905550816002600083815260200190815260200160002060006101000a81548173ffffffffffffffffffffffffffffffffffffffff021916908373ffffffffffffffffffffffffffffffffffffffff160217905550808273ffffffffffffffffffffffffffffffffffffffff16600073ffffffffffffffffffffffffffffffffffffffff167fddf252ad1be2c89b69c2b068fc378daa952ba7f163c4a11628f55a4df523b3ef60405160405180910390a45050565b600061154f82611249565b61158e576040517f08c379a000000000000000000000000000000000000000000000000000000000815260040161158590612608565b60405180910390fd5b6000611599836109c7565b90508073ffffffffffffffffffffffffffffffffffffffff168473ffffffffffffffffffffffffffffffffffffffff16148061160857508373ffffffffffffffffffffffffffffffffffffffff166115f0846105d6565b73ffffffffffffffffffffffffffffffffffffffff16145b806116195750611618818561103e565b5b91505092915050565b8273ffffffffffffffffffffffffffffffffffffffff16611642826109c7565b73ffffffffffffffffffffffffffffffffffffffff1614611698576040517f08c379a000000000000000000000000000000000000000000000000000000000815260040161168f90612748565b60405180910390fd5b600073ffffffffffffffffffffffffffffffffffffffff168273ffffffffffffffffffffffffffffffffffffffff161415611708576040517f08c379a00000000000000000000000000000000000000000000000000000000081526004016116ff906125c8565b60405180910390fd5b611713838383611ad9565b61171e6000826112bd565b6001600360008573ffffffffffffffffffffffffffffffffffffffff1673ffffffffffffffffffffffffffffffffffffffff168152602001908152602001600020600082825461176e919061291e565b925050819055506001600360008473ffffffffffffffffffffffffffffffffffffffff1673ffffffffffffffffffffffffffffffffffffffff16815260200190815260200160002060008282546117c59190612897565b92505081905550816002600083815260200190815260200160002060006101000a81548173ffffffffffffffffffffffffffffffffffffffff021916908373ffffffffffffffffffffffffffffffffffffffff160217905550808273ffffffffffffffffffffffffffffffffffffffff168473ffffffffffffffffffffffffffffffffffffffff167fddf252ad1be2c89b69c2b068fc378daa952ba7f163c4a11628f55a4df523b3ef60405160405180910390a4505050565b6000600760009054906101000a900473ffffffffffffffffffffffffffffffffffffffff16905081600760006101000a81548173ffffffffffffffffffffffffffffffffffffffff021916908373ffffffffffffffffffffffffffffffffffffffff1602179055508173ffffffffffffffffffffffffffffffffffffffff168173ffffffffffffffffffffffffffffffffffffffff167f8be0079c531659141344cd1fd0a4f28419497f9722a3daafe3b4186f6b6457e060405160405180910390a35050565b61194f848484611622565b61195b84848484611ade565b61199a576040517f08c379a000000000000000000000000000000000000000000000000000000000815260040161199190612568565b60405180910390fd5b50505050565b6060600880546119af90612a18565b80601f01602080910402602001604051908101604052809291908181526020018280546119db90612a18565b8015611a285780601f106119fd57610100808354040283529160200191611a28565b820191906000526020600020905b815481529060010190602001808311611a0b57829003601f168201915b5050505050905090565b6060611a3d82611249565b611a7c576040517f08c379a0000000000000000000000000000000000000000000000000000000008152600401611a7390612768565b60405180910390fd5b6000611a866119a0565b90506000815111611aa65760405180602001604052806000815250611ad1565b80611ab084611c75565b604051602001611ac19291906124a0565b6040516020818303038152906040525b915050919050565b505050565b6000611aff8473ffffffffffffffffffffffffffffffffffffffff16611e22565b15611c68578373ffffffffffffffffffffffffffffffffffffffff1663150b7a02611b286112b5565b8786866040518563ffffffff1660e01b8152600401611b4a94939291906124df565b602060405180830381600087803b158015611b6457600080fd5b505af1925050508015611b9557506040513d601f19601f82011682018060405250810190611b9291906120d6565b60015b611c18573d8060008114611bc5576040519150601f19603f3d011682016040523d82523d6000602084013e611bca565b606091505b50600081511415611c10576040517f08c379a0000000000000000000000000000000000000000000000000000000008152600401611c0790612568565b60405180910390fd5b805181602001fd5b63150b7a0260e01b7bffffffffffffffffffffffffffffffffffffffffffffffffffffffff1916817bffffffffffffffffffffffffffffffffffffffffffffffffffffffff191614915050611c6d565b600190505b949350505050565b60606000821415611cbd576040518060400160405280600181526020017f30000000000000000000000000000000000000000000000000000000000000008152509050611e1d565b600082905060005b60008214611cef578080611cd890612a7b565b915050600a82611ce891906128ed565b9150611cc5565b60008167ffffffffffffffff811115611d31577f4e487b7100000000000000000000000000000000000000000000000000000000600052604160045260246000fd5b6040519080825280601f01601f191660200182016040528015611d635781602001600182028036833780820191505090505b5090505b60008514611e1657600182611d7c919061291e565b9150600a85611d8b9190612af1565b6030611d979190612897565b60f81b818381518110611dd3577f4e487b7100000000000000000000000000000000000000000000000000000000600052603260045260246000fd5b60200101907effffffffffffffffffffffffffffffffffffffffffffffffffffffffffffff1916908160001a905350600a85611e0f91906128ed565b9450611d67565b8093505050505b919050565b600080823b905060008111915050919050565b6000611e48611e4384612823565b6127fe565b905082815260208101848484011115611e6057600080fd5b611e6b8482856129d6565b509392505050565b600081359050611e828161310e565b92915050565b600081359050611e9781613125565b92915050565b600081359050611eac8161313c565b92915050565b600081519050611ec18161313c565b92915050565b600082601f830112611ed857600080fd5b8135611ee8848260208601611e35565b91505092915050565b600081359050611f0081613153565b92915050565b600060208284031215611f1857600080fd5b6000611f2684828501611e73565b91505092915050565b60008060408385031215611f4257600080fd5b6000611f5085828601611e73565b9250506020611f6185828601611e73565b9150509250929050565b600080600060608486031215611f8057600080fd5b6000611f8e86828701611e73565b9350506020611f9f86828701611e73565b9250506040611fb086828701611ef1565b9150509250925092565b60008060008060808587031215611fd057600080fd5b6000611fde87828801611e73565b9450506020611fef87828801611e73565b935050604061200087828801611ef1565b925050606085013567ffffffffffffffff81111561201d57600080fd5b61202987828801611ec7565b91505092959194509250565b6000806040838503121561204857600080fd5b600061205685828601611e73565b925050602061206785828601611e88565b9150509250929050565b6000806040838503121561208457600080fd5b600061209285828601611e73565b92505060206120a385828601611ef1565b9150509250929050565b6000602082840312156120bf57600080fd5b60006120cd84828501611e9d565b91505092915050565b6000602082840312156120e857600080fd5b60006120f684828501611eb2565b91505092915050565b60006020828403121561211157600080fd5b600061211f84828501611ef1565b91505092915050565b61213181612952565b82525050565b61214081612964565b82525050565b600061215182612854565b61215b818561286a565b935061216b8185602086016129e5565b61217481612bde565b840191505092915050565b600061218a8261285f565b612194818561287b565b93506121a48185602086016129e5565b6121ad81612bde565b840191505092915050565b60006121c38261285f565b6121cd818561288c565b93506121dd8185602086016129e5565b80840191505092915050565b60006121f660328361287b565b915061220182612bef565b604082019050919050565b600061221960268361287b565b915061222482612c3e565b604082019050919050565b600061223c601c8361287b565b915061224782612c8d565b602082019050919050565b600061225f60248361287b565b915061226a82612cb6565b604082019050919050565b600061228260198361287b565b915061228d82612d05565b602082019050919050565b60006122a5602c8361287b565b91506122b082612d2e565b604082019050919050565b60006122c860248361287b565b91506122d382612d7d565b604082019050919050565b60006122eb60208361287b565b91506122f682612dcc565b602082019050919050565b600061230e60388361287b565b915061231982612df5565b604082019050919050565b6000612331602a8361287b565b915061233c82612e44565b604082019050919050565b600061235460298361287b565b915061235f82612e93565b604082019050919050565b600061237760208361287b565b915061238282612ee2565b602082019050919050565b600061239a60318361287b565b91506123a582612f0b565b604082019050919050565b60006123bd602c8361287b565b91506123c882612f5a565b604082019050919050565b60006123e060208361287b565b91506123eb82612fa9565b602082019050919050565b600061240360298361287b565b915061240e82612fd2565b604082019050919050565b6000612426602f8361287b565b915061243182613021565b604082019050919050565b600061244960218361287b565b915061245482613070565b604082019050919050565b600061246c60318361287b565b9150612477826130bf565b604082019050919050565b61248b816129bc565b82525050565b61249a816129c6565b82525050565b60006124ac82856121b8565b91506124b882846121b8565b91508190509392505050565b60006020820190506124d96000830184612128565b92915050565b60006080820190506124f46000830187612128565b6125016020830186612128565b61250e6040830185612482565b81810360608301526125208184612146565b905095945050505050565b60006020820190506125406000830184612137565b92915050565b60006020820190508181036000830152612560818461217f565b905092915050565b60006020820190508181036000830152612581816121e9565b9050919050565b600060208201905081810360008301526125a18161220c565b9050919050565b600060208201905081810360008301526125c18161222f565b9050919050565b600060208201905081810360008301526125e181612252565b9050919050565b6000602082019050818103600083015261260181612275565b9050919050565b6000602082019050818103600083015261262181612298565b9050919050565b60006020820190508181036000830152612641816122bb565b9050919050565b60006020820190508181036000830152612661816122de565b9050919050565b6000602082019050818103600083015261268181612301565b9050919050565b600060208201905081810360008301526126a181612324565b9050919050565b600060208201905081810360008301526126c181612347565b9050919050565b600060208201905081810360008301526126e18161236a565b9050919050565b600060208201905081810360008301526127018161238d565b9050919050565b60006020820190508181036000830152612721816123b0565b9050919050565b60006020820190508181036000830152612741816123d3565b9050919050565b60006020820190508181036000830152612761816123f6565b9050919050565b6000602082019050818103600083015261278181612419565b9050919050565b600060208201905081810360008301526127a18161243c565b9050919050565b600060208201905081810360008301526127c18161245f565b9050919050565b60006020820190506127dd6000830184612482565b92915050565b60006020820190506127f86000830184612491565b92915050565b6000612808612819565b90506128148282612a4a565b919050565b6000604051905090565b600067ffffffffffffffff82111561283e5761283d612baf565b5b61284782612bde565b9050602081019050919050565b600081519050919050565b600081519050919050565b600082825260208201905092915050565b600082825260208201905092915050565b600081905092915050565b60006128a2826129bc565b91506128ad836129bc565b9250827fffffffffffffffffffffffffffffffffffffffffffffffffffffffffffffffff038211156128e2576128e1612b22565b5b828201905092915050565b60006128f8826129bc565b9150612903836129bc565b92508261291357612912612b51565b5b828204905092915050565b6000612929826129bc565b9150612934836129bc565b92508282101561294757612946612b22565b5b828203905092915050565b600061295d8261299c565b9050919050565b60008115159050919050565b60007fffffffff0000000000000000000000000000000000000000000000000000000082169050919050565b600073ffffffffffffffffffffffffffffffffffffffff82169050919050565b6000819050919050565b600063ffffffff82169050919050565b82818337600083830152505050565b60005b83811015612a035780820151818401526020810190506129e8565b83811115612a12576000848401525b50505050565b60006002820490506001821680612a3057607f821691505b60208210811415612a4457612a43612b80565b5b50919050565b612a5382612bde565b810181811067ffffffffffffffff82111715612a7257612a71612baf565b5b80604052505050565b6000612a86826129bc565b91507fffffffffffffffffffffffffffffffffffffffffffffffffffffffffffffffff821415612ab957612ab8612b22565b5b600182019050919050565b6000612acf826129c6565b915063ffffffff821415612ae657612ae5612b22565b5b600182019050919050565b6000612afc826129bc565b9150612b07836129bc565b925082612b1757612b16612b51565b5b828206905092915050565b7f4e487b7100000000000000000000000000000000000000000000000000000000600052601160045260246000fd5b7f4e487b7100000000000000000000000000000000000000000000000000000000600052601260045260246000fd5b7f4e487b7100000000000000000000000000000000000000000000000000000000600052602260045260246000fd5b7f4e487b7100000000000000000000000000000000000000000000000000000000600052604160045260246000fd5b6000601f19601f8301169050919050565b7f4552433732313a207472616e7366657220746f206e6f6e20455243373231526560008201527f63656976657220696d706c656d656e7465720000000000000000000000000000602082015250565b7f4f776e61626c653a206e6577206f776e657220697320746865207a65726f206160008201527f6464726573730000000000000000000000000000000000000000000000000000602082015250565b7f4552433732313a20746f6b656e20616c7265616479206d696e74656400000000600082015250565b7f4552433732313a207472616e7366657220746f20746865207a65726f2061646460008201527f7265737300000000000000000000000000000000000000000000000000000000602082015250565b7f4552433732313a20617070726f766520746f2063616c6c657200000000000000600082015250565b7f4552433732313a206f70657261746f7220717565727920666f72206e6f6e657860008201527f697374656e7420746f6b656e0000000000000000000000000000000000000000602082015250565b7f596f552068617665207265616368656420796f7572206d6178696d756d20737560008201527f70706c7900000000000000000000000000000000000000000000000000000000602082015250565b7f6d6178696d756d20737570706c79207265616368656420617420612074696d65600082015250565b7f4552433732313a20617070726f76652063616c6c6572206973206e6f74206f7760008201527f6e6572206e6f7220617070726f76656420666f7220616c6c0000000000000000602082015250565b7f4552433732313a2062616c616e636520717565727920666f7220746865207a6560008201527f726f206164647265737300000000000000000000000000000000000000000000602082015250565b7f4552433732313a206f776e657220717565727920666f72206e6f6e657869737460008201527f656e7420746f6b656e0000000000000000000000000000000000000000000000602082015250565b7f4552433732313a206d696e7420746f20746865207a65726f2061646472657373600082015250565b7f45524337323155524953746f726167653a2055524920717565727920666f722060008201527f6e6f6e6578697374656e7420746f6b656e000000000000000000000000000000602082015250565b7f4552433732313a20617070726f76656420717565727920666f72206e6f6e657860008201527f697374656e7420746f6b656e0000000000000000000000000000000000000000602082015250565b7f4f776e61626c653a2063616c6c6572206973206e6f7420746865206f776e6572600082015250565b7f4552433732313a207472616e73666572206f6620746f6b656e2074686174206960008201527f73206e6f74206f776e0000000000000000000000000000000000000000000000602082015250565b7f4552433732314d657461646174613a2055524920717565727920666f72206e6f60008201527f6e6578697374656e7420746f6b656e0000000000000000000000000000000000602082015250565b7f4552433732313a20617070726f76616c20746f2063757272656e74206f776e6560008201527f7200000000000000000000000000000000000000000000000000000000000000602082015250565b7f4552433732313a207472616e736665722063616c6c6572206973206e6f74206f60008201527f776e6572206e6f7220617070726f766564000000000000000000000000000000602082015250565b61311781612952565b811461312257600080fd5b50565b61312e81612964565b811461313957600080fd5b50565b61314581612970565b811461315057600080fd5b50565b61315c816129bc565b811461316757600080fd5b5056fea2646970667358221220559a57cd6920e0e00255aa7749aef6c60dcbbb0007461181365fe7cdf00d757064736f6c63430008040033",
  "linkReferences": {},
  "deployedLinkReferences": {}
}