{
  "_format": "hh-sol-artifact-1",
  "contractName": "Token",
  "sourceName": "contracts/Token.sol",
  "abi": [
    {
      "inputs": [],
      "stateMutability": "nonpayable",
      "type": "constructor"
    },
    {
      "inputs": [],
      "name": "balance",
      "outputs": [
        {
          "internalType": "uint256",
          "name": "",
          "type": "uint256"
        }
      ],
      "stateMutability": "view",
      "type": "function"
    },
    {
      "inputs": [
        {
          "internalType": "address",
          "name": "",
          "type": "address"
        }
      ],
      "name": "balances",
      "outputs": [
        {
          "internalType": "uint256",
          "name": "",
          "type": "uint256"
        }
      ],
      "stateMutability": "view",
      "type": "function"
    },
    {
      "inputs": [
        {
          "internalType": "address",
          "name": "to",
          "type": "address"
        },
        {
          "internalType": "uint256",
          "name": "amount",
          "type": "uint256"
        }
      ],
      "name": "transfer",
      "outputs": [],
      "stateMutability": "nonpayable",
      "type": "function"
    }
  ],
  "bytecode": "0x60806040526040518060400160405280600781526020017f4d79546f6b656e000000000000000000000000000000000000000000000000008152506000908051906020019061004f92919061013b565b506040518060400160405280600281526020017f4d540000000000000000000000000000000000000000000000000000000000008152506001908051906020019061009b92919061013b565b506103e86002553480156100ae57600080fd5b50600254600460003373ffffffffffffffffffffffffffffffffffffffff1673ffffffffffffffffffffffffffffffffffffffff1681526020019081526020016000208190555033600360006101000a81548173ffffffffffffffffffffffffffffffffffffffff021916908373ffffffffffffffffffffffffffffffffffffffff16021790555061023f565b828054610147906101de565b90600052602060002090601f01602090048101928261016957600085556101b0565b82601f1061018257805160ff19168380011785556101b0565b828001600101855582156101b0579182015b828111156101af578251825591602001919060010190610194565b5b5090506101bd91906101c1565b5090565b5b808211156101da5760008160009055506001016101c2565b5090565b600060028204905060018216806101f657607f821691505b6020821081141561020a57610209610210565b5b50919050565b7f4e487b7100000000000000000000000000000000000000000000000000000000600052602260045260246000fd5b6105088061024e6000396000f3fe608060405234801561001057600080fd5b50600436106100415760003560e01c806327e235e314610046578063a9059cbb14610076578063b69ef8a814610092575b600080fd5b610060600480360381019061005b91906102af565b6100b0565b60405161006d9190610383565b60405180910390f35b610090600480360381019061008b91906102d8565b6100c8565b005b61009a61023e565b6040516100a79190610383565b60405180910390f35b60046020528060005260406000206000915090505481565b8060046000600360009054906101000a900473ffffffffffffffffffffffffffffffffffffffff1673ffffffffffffffffffffffffffffffffffffffff1673ffffffffffffffffffffffffffffffffffffffff16815260200190815260200160002054101561016c576040517f08c379a000000000000000000000000000000000000000000000000000000000815260040161016390610363565b60405180910390fd5b8060046000600360009054906101000a900473ffffffffffffffffffffffffffffffffffffffff1673ffffffffffffffffffffffffffffffffffffffff1673ffffffffffffffffffffffffffffffffffffffff16815260200190815260200160002060008282546101dd9190610405565b9250508190555080600460008473ffffffffffffffffffffffffffffffffffffffff1673ffffffffffffffffffffffffffffffffffffffff168152602001908152602001600020600082825461023391906103af565b925050819055505050565b6000600460003373ffffffffffffffffffffffffffffffffffffffff1673ffffffffffffffffffffffffffffffffffffffff16815260200190815260200160002054905090565b600081359050610294816104a4565b92915050565b6000813590506102a9816104bb565b92915050565b6000602082840312156102c157600080fd5b60006102cf84828501610285565b91505092915050565b600080604083850312156102eb57600080fd5b60006102f985828601610285565b925050602061030a8582860161029a565b9150509250929050565b600061032160118361039e565b91507f6e6f7420656e6f75676820746f6b656e730000000000000000000000000000006000830152602082019050919050565b61035d8161046b565b82525050565b6000602082019050818103600083015261037c81610314565b9050919050565b60006020820190506103986000830184610354565b92915050565b600082825260208201905092915050565b60006103ba8261046b565b91506103c58361046b565b9250827fffffffffffffffffffffffffffffffffffffffffffffffffffffffffffffffff038211156103fa576103f9610475565b5b828201905092915050565b60006104108261046b565b915061041b8361046b565b92508282101561042e5761042d610475565b5b828203905092915050565b60006104448261044b565b9050919050565b600073ffffffffffffffffffffffffffffffffffffffff82169050919050565b6000819050919050565b7f4e487b7100000000000000000000000000000000000000000000000000000000600052601160045260246000fd5b6104ad81610439565b81146104b857600080fd5b50565b6104c48161046b565b81146104cf57600080fd5b5056fea26469706673582212203dddccdb39147ee2037f1001b01d4f1948acdd0fe2135d383a7fbb2f6f7138b264736f6c63430008000033",
  "linkReferences": {},
  "deployedLinkReferences": {}
}